:10000000F8FF02209901000031150000FD140000E6
:10001000FD140000FD140000FD140000FD1400009C
:10002000FD140000FD140000FD1400003115000057
:1000300031150000FD1400003D290000012A0000D8
:100040003115000031150000311500003115000098
:100050003115000031150000311500003115000088
:100060003115000031150000311500003115000078
:100070003115000031150000311500003115000068
:100080003115000031150000311500003115000058
:100090003115000031150000311500003115000048
:1000A000A9090000B5090000311500003115000054
:1000B000311500003115000031150000F52A00004F
:1000C00031150000112C0000311500002D2D00000D
:1000D00031150000192E0000311500003115000007
:1000E00031150000311500003115000031150000F8
:1000F00031150000311500003115000031150000E8
:1001000031150000311500003115000031150000D7
:1001100031150000C5180000311500003115000030
:1001200031150000311500003115000031150000B7
:1001300031150000311500003115000031150000A7
:100140007510000031150000052F0000311500006A
:10015000F12F0000311500003115000031150000AD
:100160003115000031150000C109000031150000F3
:100170003115000031150000311500003115000067
:100180003115000031150000311500003115000057
:100190003115000031150000584B4CF2205210B5BB
:1001A0001A804DF628121A8000BF00BF01F0C4F972
:1001B000534B4FF030621A60524A9A60524ADA60EA
:1001C000524B4FF470021A60514A136813F4807353
:1001D00001BF50490B604FF4A85313604E4B4F4979
:1001E0001A78100742BF1A7842F008021A704C4B76
:1001F0002A221A704B4A4C4B8B4204D252F8040FFD
:1002000043F8040BF8E7494B494A0021934202D2D4
:1002100043F8041BFAE7474A4748002350F82310E5
:1002200042F823100133662BF8D1444B444A802115
:1002300003F8011B9342FBD1424B3E4A1A60424BEA
:100240008A221A70A3F5805324225A70A0221A70B1
:100250009A799107FCD59A79D206FCD43B4A9379D6
:1002600003F00C03082B394BF9D103221A714622F3
:100270005A719A799406FCD534498A79334B5006E1
:10028000FBD5334A4FF08271116009215160202261
:100290001A709A7902F00C020C2AFAD12D4B2E4AD0
:1002A0001A602E4B2E4A1A6000225A60072243F829
:1002B000042C2C4AC3F80C2D62B601F0C1F9154B81
:1002C0001B68DA0705D5284801F076F9274B284A3C
:1002D0001A60284B1B785B0609D5244C244B2268F6
:1002E0009A4204D1204801F067F90023236003F00B
:1002F00007FC01F027F901F03DF8FEE70E2005406C
:1003000030800440823F04000100002B88ED00E0B3
:1003100010D0034014D0034002D00740B022FF1F8A
:1003200000E0074010750000F816FF1FB022FF1F05
:100330005029FF1F0012FF1F0000000000E400E032
:1003400056E400E008ED00E00050064000400640A2
:100350004480044004800440C010050014E000E024
:10036000BFD40100000020200D3F535C1CE003407F
:10037000A5C3945A00F00740FFFFFFFFFFFFFFFFF8
:10038000FFFFFFFFFFFFFFFFFFFFFFFFFFFFFFFF7D
:10039000FFFFFFFFFFFFFFFFFFFFFFFFFFFFFFFF6D
:1003A000FFFFFFFFFFFFFFFFFFFFFFFFFFFFFFFF5D
:1003B000FFFFFFFFFFFFFFFFFFFFFFFFFFFFFFFF4D
:1003C000FFFFFFFFFFFFFFFFFFFFFFFFFFFFFFFF3D
:1003D000FFFFFFFFFFFFFFFFFFFFFFFFFFFFFFFF2D
:1003E000FFFFFFFFFFFFFFFFFFFFFFFFFFFFFFFF1D
:1003F000FFFFFFFFFFFFFFFFFFFFFFFFFFFFFFFF0D
:10040000FFFFFFFFFFFFFFFFFFFFFFFFDEF9FFFF23
:1004100010B5054C237833B9044B13B10448AFF33E
:1004200000800123237010BDB022FF1F00000000D8
:100430000C750000084B10B51BB108490848AFF314
:1004400000800848036803B910BD074B002BFBD0A0
:10045000BDE81040184700BF00000000B422FF1F95
:100460000C750000B022FF1F0000000010B504460C
:1004700000F0BDFD204610BD10B52DED028B0A2207
:100480008CB03849384800F0C9FE0F21044637487F
:1004900002F0E6F8334804F013F90146314802F05F
:1004A000DFF8334800F08EFE0A2C56D12D496846FD
:1004B00000F00DFF05230122694604A800F030FF7B
:1004C00023460622694608A800F02AFF04A800F087
:1004D00047FF08A8B0EE408A00F042FFDFED257A22
:1004E000B5EEC08AF1EE10FA20EE270A09D4DFED4E
:1004F000227AB4EE678AF1EE10FAC8BFB0EE678ACE
:1005000001E09FED1E8ADFED1E7A1E4B28EE278A42
:10051000DFED1D7ABCEEC88AB4EEE70AF1EE10FA00
:1005200083ED078A09DCDFED197AB4EE670AF1EE94
:1005300010FA48BFB0EE670A01E0B0EE670ABEEEFF
:10054000C80A134B08A883ED060A00F080FE04A831
:1005500000F07DFE684600F07AFE0CB0BDEC028B28
:1005600010BD00BFFC16FF1F7417FF1F306C00008A
:100570005018FF1F6F12833AA655AC4600000000CA
:100580004B24BE470C23FF1F00FEFF4600FEFFC6A4
:10059000CC22FF1F0F4B03600023417202610372E4
:1005A000C3601946427A934204DA026942F8231082
:1005B0000133F7E7084A13680BB9106004E05A6981
:1005C0000AB11346FBE75861002343618380C3806F
:1005D000837270472C6C00009024FF1F10B50A4CEA
:1005E0000321204600F03CF9084BA3660A21084885
:1005F00000F0E2FB074A0023D3614FF4803313621B
:10060000054A936110BD00BF7417FF1F79040000F5
:100610000002FF1F0C23FF1FCC22FF1F7047FFFFAC
:100620002DE9F8432B4C2C4E2C4F2D4DDFF8C89064
:10063000DFF8C880002211462046FFF7ABFF294BA8
:10064000236006F11C024FF48043012130462362EF
:10065000FFF7A0FF244B336007F1180202214FF48B
:1006600080333846B361FFF795FF204B3B60384637
:1006700000F09CFA85E85000284600242C726C7229
:10068000EC602C7400F081FC2846194D4A46414626
:1006900002F04CFD284685E8C0002C726C72EC60BC
:1006A0002C7400F072FC2846124D4A46414602F076
:1006B0003DFD0123284685E8C0002C726B72EC607A
:1006C0002C7400F062FC4A4641462846BDE8F843D7
:1006D00002F02CBD0C23FF1FCC22FF1FEC22FF1FBA
:1006E0003023FF1FE46C0000CC6C0000D86C0000CD
:1006F0004423FF1F5823FF1FF816FF1F6D0400003F
:100700000020704790F8392090F83800101A704790
:1007100090F8383090F839209A4281BF5A1C1B1843
:1007200080F83820187E98BF4FF0FF30704790F85F
:10073000383090F839209A4286BF1B18187E4FF047
:10074000FF3070477047B0F85E302BB190F85D30E5
:10075000202B03D901230371002070475A1C034446
:1007600080F85D2083F83B100120704738B50446BF
:10077000B0F85E001546A0B194F85D30C3F12102D7
:10078000954282BF01201546207104F13B001844B8
:100790002A4600F0F7FD94F85D302B4484F85D3074
:1007A000284638BD43691A685B6812681A420ED041
:1007B000074B9942036901D82C2204E0054A914273
:1007C00094BF1C2212225A70036904229A71704746
:1007D0007F1A06003F420F0070B50023456980F87C
:1007E000383080F8393080F85C3080F85D3080F83F
:1007F0005E3080F85F3029686A680E68436632436D
:1008000083660A6002699370466990F86110124A23
:1008100031440D7A4B7B02EBC5051B026D6803F476
:10082000E06343F064032B6090F862303344997CBA
:10083000DB7D02EBC1021B025268084903F4E0634E
:1008400043F064031360FFF7ADFF036920225A7180
:10085000036980229A7070BDEC6E0000A0860100D2
:1008600038B50C46FFF7B8FF64000369E4B21C70AA
:1008700003690122C02180F85F2099704369197FC4
:100880004B119B0003F1604303F5614301F01F012D
:100890008A401A6038BDFFFF38B50269D578EDB2DD
:1008A00015F0100F044605F0400303D103F0FF01DB
:1008B0002BB92AE01021D170002BF7D138BD05F0FB
:1008C000040505F0FF02374BCDB100221A70636EAC
:1008D00084F85D2003B1984794F85D3023B9012274
:1008E00084F85D2084F83B302369D0229A70236914
:1008F00094F83B201A71012384F85C304DE001210B
:10090000197084F8392023692DE022699379DBB2CC
:1009100003F06000602809D103F0DF039371A36E38
:1009200023B184F8381094F83900984723699A78ED
:1009300002F0100202F0FF01D2B115F0010512D150
:1009400094F85C2094F85D10914281BF511C1219FB
:1009500084F85C1092F83B208CBF1A711D712369DA
:10096000D0229A7019E0C0229A7023691B7914E092
:1009700084F860109A7942F020029A7123691A79FA
:1009800094F839301F2BD2B207D80649097821B123
:10099000591C234484F839101A7623690222DA702C
:1009A00038BD00BF6C23FF1F0148FFF775BF00BFB4
:1009B0007417FF1F0148FFF76FBF00BFE017FF1F4D
:1009C0000148FFF769BF00BF0817FF1F10B500F50A
:1009D0008074036831FB03F231FB13F302F30F025F
:1009E00003F30F03C2EA034340F8043B8442F0D10F
:1009F00010BD70B58569064625B9294600F096FAFE
:100A0000C0B91BE0B5F5803F4FF0000104D100F004
:100A10008DFA044640B911E000F095FA044668B139
:100A200029460430FFF7D2FF30460022214600F06D
:100A300069FA2046BDE8704000F03CBA70BDFFFF87
:100A400038B50021044600F071FA01210546204620
:100A500000F06CFA044672B66DB114490B680BB91C
:100A60000D6007E0124A106810B91560054602E0F3
:100A7000086015601D466CB10E490B680BB90C601F
:100A800007E00D4A106810B91460044602E00860DF
:100A900014601C4662B615B1284600F00BFA24B16A
:100AA0002046BDE8384000F005BA38BD8423FF1F5A
:100AB0007423FF1F7023FF1F7823FF1F2DE9F843C6
:100AC0002D4B2E4E1A682E4C11681A792D4B1A7028
:100AD0002D4A2E4B30682568914236BF1146A2F54B
:100AE000007101F50072002808BF1846002D08BFEC
:100AF0001D4600F1040E2F1D5EF804CB57F8043B91
:100B00001FFA8CF808F500491FFA83F808F5004829
:100B10004FEA18184FEA08481B0C48EA191803F561
:100B2000004341F8088B4FEA1C4C1B090CF5004CA4
:100B30001B0443EA1C138A4241F8043CDCD8134BE3
:100B400098421F4606D000F0B5F9114B1A68326082
:100B500000221A60BD4207D0284600F0ABF90D4BC9
:100B60001A68226000221A600B4B1B7813B10B4BE2
:100B700001221A60BDE8F8837C23FF1F8423FF1F36
:100B80007023FF1F1F800040280EFF1F8823FF1FB8
:100B90007423FF1F7823FF1F8C24FF1F08E200E04F
:100BA00010B5044600F0F4FA204610BD70B50121DE
:100BB00049484A4E4A4D00F097FA4A4A4A48136853
:100BC00043F44053136002F5032202F6F5728023CA
:100BD000137002F58052002113704FF4827200F0FE
:100BE0006BFC0024348001202C80083400F012FDBE
:100BF000A3B240F6080293421CB2F3D13B4B3C48EF
:100C00001A683C4C3C4912F4800F52D03B4A15689C
:100C100048F6A2722A4048F6A275AA4249D1056850
:100C200040F24F52954244D12268012A41D10D68C9
:100C300040F2011295423CD1274C314A2368314998
:100C40001A6004229A8040F20122DA802E4A9A60C9
:100C50002E4ADA60214A1A614FF480529A824FF488
:100C60008072DA82DA8306229A839961237903F10A
:100C7000804303F5043300221A70B0221A7000F08A
:100C8000E7F9234B22791870224B23481A7002F19E
:100C90001001224B43F8210053119B0003F16043E4
:100CA00003F5614302F01F02012101FA02F21A600A
:100CB00070BD1A6842F480021A600123236040F27A
:100CC0004F5303600D4B48F6A3721A60144A1A6022
:100CD00040F201130B60AFE77C23FF1F00C00C4004
:100CE00000D00C402C8004408823FF1F3C8004402F
:100CF000046003400C600340106003400060034048
:100D0000280CFF1F00E0FFFF0400807F00FCFFFFB6
:100D10008C24FF1F1B800040BD0A00000012FF1F33
:100D2000A28F0100024A0349034802F0FFB900BF45
:100D3000F816FF1FA10B00007C23FF1F036A2DE99B
:100D4000F04704467BB300F06FF8054658B3A1693D
:100D5000D4F81CE0D4F82090DFF858C0861C00F5C9
:100D600081780846070E7B1CC0F30F2A3CF91770E8
:100D70003CF91320CAF580337B430AFB023353FB53
:100D800009F326F8023FB0457044EBD101EBCE11D8
:100D9000A16120462946002200F0B4F82846BDE8AB
:100DA000F04700F087B8A369E26903EBC213A361BF
:100DB000BDE8F087E86C0000B1F5207FF0B528BFF2
:100DC0004FF4207172B6154B154A1860002313803A
:100DD000144A1C4642F823400133142B114DF9D11B
:100DE000002301278B4203D100234FF482740BE0D0
:100DF0005E0903F01F0207FA02F455F82620224389
:100E000045F826200133EDE78B4204D004FB0302B2
:100E100053800133F8E762B6F0BD00BF9824FF1F8E
:100E2000F224FF1FA024FF1F70B572B61C491D4895
:100E30000A880C4600EB820300F15006B34202D34D
:100E400062B6002070BD1D4655F8041B11B9013271
:100E50002B46F3E7B1FA81F64FF00045F54021EA61
:100E60000501196001B9013222800F4A1188013150
:100E70008CB2148062B61B1A9B10C6EB43134FF45E
:100E800082725343094A03F5FB5312681C33012550
:100E9000D554D018064B1A88914288BF1C8070BD6B
:100EA000F224FF1FA024FF1FF424FF1F9824FF1F1C
:100EB0009424FF1F438872B60278012A02D9013AAE
:100EC000027016E05A110C48DB434FF0004103F06A
:100ED0001F0321FA03F350F822101943074B40F87F
:100EE000221019888A4238BF1A80054A1388013BAC
:100EF000138062B6704700BFA024FF1FF224FF1FBB
:100F0000F424FF1F30B5C3687BB1187A90420AD130
:100F100058685C7A006950F8245025B940F82410CC
:100F2000087801300870DB68EEE730BD437A8B4209
:100F300088BF02694FF0000386BF52F8210042F8D3
:100F400021301846704738B5437A8B4201D80020CB
:100F500038BD036953F82140002243F82120002CBA
:100F6000F5D02378012B0ED9FFF75EFF054628B197
:100F70004FF48072211D043000F004FA2378013B05
:100F80002370284638BD204638BD037C30B5002B81
:100F90002CD14368427A5B7A9A4227D872B60268AB
:100FA000D3682BB9D06011E01C68A24204D00B4674
:100FB000D9680029F8D108E05D684468A542F6D1F7
:100FC0001C8903899C42F2D10FE0D8600023C360E2
:100FD000937A0133937202684168012313728A7A0B
:100FE0001A448A7242681372037462B630BD037C7D
:100FF000002B2BD04368427A5B7A9A4226D872B68D
:101000000268D36813B3984204D1C368D36004E084
:10101000984202D0DB68002BFAD14368427A1B6900
:10102000002143F822100268937A013B937203680F
:101030009A7A02B91A724268937A013B93724368B2
:101040009A7A02B91A720023037462B67047FFFFDE
:10105000064B1A7842B9064AD0211170A2F54E7299
:101060000120106018707047002070479C24FF1FFB
:1010700040E400E0164AF8B51368164D43F080735B
:101080001360154A136843F001031360134B2E6875
:101090001C688CB1237A6BB123682F681B682046CB
:1010A00098472A68E388D21B120991B29A42A1801C
:1010B00088BFE1806469ECE72B68094A9B1B1B0928
:1010C00099B21180074A1088834288BF1180F8BD09
:1010D000FCED00E0041000E0001000E09024FF1F91
:1010E000F624FF1FF024FF1F30B572B6254C89B9D6
:1010F000016879B103790F2B0CD822881A41D207E5
:1011000008D503F1007303F59063B1EB431F01D1E0
:1011100062B630BD2188002341FA03F212F00102C9
:1011200027D101259D402943218062B6164DD9B2B1
:1011300001712C6844F002042C6055F8044C03F152
:10114000007344F0020445F8044C03F590630F4C1F
:101150005B0182252560A176A1772176E177036086
:101160001A605A609A60DA601A615A619A61DA61AB
:1011700030BD0133102BCFD162B600220260037163
:1011800030BD00BFF824FF1F4080044000800040B5
:1011900003790F2B10D8094A137072B608490279E7
:1011A000012303FA02F20B8823EA02030B8062B6E2
:1011B0001023037100230360704700BF1A800040B2
:1011C000F824FF1F07B5064B1B88ADF804300368F1
:1011D00002225B6801A9984703B05DF804FB00BFD9
:1011E000EA6E000073B50C4B1A680092009E04462C
:1011F0001D46236820465B69984700280ADA01F0FB
:1012000021FB2B680193019BA2689B1B9342F0D3A7
:101210004FF0FF3002B070BDFC24FF1F2DE9F041FC
:1012200006460D4601EB02080C464445A4EB0507B3
:101230000AD03046FFF7D6FF002802DA01233373C5
:1012400002E004F8010BF0E73846BDE8F08110B584
:101250000446006802F084FC204610BD38B5044600
:101260000D460068013102F0B9FF10B184E8210099
:10127000012038BD43688B4210B5044606D2FFF703
:10128000EDFF20B1A3680BB922681370012010BDD7
:10129000F8B504460F46154622B9036803B11A7023
:1012A00000230BE01146FFF7E5FF064640B9206832
:1012B00010B102F055FC266000236360A36004E0D7
:1012C000A5603946206803F093F92046F8BD38B58B
:1012D0000023044603604360836003730D4639B105
:1012E000084603F0EDF9294602462046FFF7D0FFF5
:1012F000204638BD38B5054608460C4603F0E0F9EF
:10130000214602462846BDE83840FFF7C1BF10B568
:10131000044611B1FFF7EEFF00E0A160204610BDCA
:101320009A42F8B50E4682BF11461A460B46002176
:1013300081600173044601604160B06882420DD84B
:10134000834228BF03461D4633685F5D59553168A7
:1013500020461144FFF7DBFF33685F552046F8BD98
:10136000006810B1002104F0F3B99FED010A704745
:101370000000000008B5FFF731F9FFF74FF901F061
:1013800061FAFAE7844641EA000313F003036DD1E2
:10139000403A41D351F8043B40F8043B51F8043B38
:1013A00040F8043B51F8043B40F8043B51F8043B3F
:1013B00040F8043B51F8043B40F8043B51F8043B2F
:1013C00040F8043B51F8043B40F8043B51F8043B1F
:1013D00040F8043B51F8043B40F8043B51F8043B0F
:1013E00040F8043B51F8043B40F8043B51F8043BFF
:1013F00040F8043B51F8043B40F8043B51F8043BEF
:1014000040F8043B51F8043B40F8043B51F8043BDE
:1014100040F8043B403ABDD2303211D351F8043B7E
:1014200040F8043B51F8043B40F8043B51F8043BBE
:1014300040F8043B51F8043B40F8043B103AEDD22D
:101440000C3205D351F8043B40F8043B043AF9D27E
:10145000043208D0D2071CBF11F8013B00F8013B51
:1014600001D30B8803806046704700BF082A13D35E
:101470008B078DD010F003038AD0C3F10403D21A76
:10148000DB071CBF11F8013B00F8013B80D331F8AA
:10149000023B20F8023B7BE7043AD9D3013A11F82A
:1014A000013B00F8013BF9D20B7803704B78437095
:1014B0008B7883706046704701B5EAB1102A17DB5C
:1014C00000F0070333B1C3F10803D21A013B00F85F
:1014D000011BFBDCC9B241EA012141EA01418C4612
:1014E000D308013BE0E8021CFBDC12F0070203D04A
:1014F000013A00F8011BFBDC01BD00BF08B50B4D34
:101500002C462B68580301D500F0DCF923685905F7
:1015100001D501F0EFFA23681A0501D501F078FB37
:101520002368DB04EDD501F001FCEAE734800440D8
:1015300008B5FFF7E3FFFFFF014B10221A80704749
:10154000002005407047FFFF094908B50B6868B1E6
:101550006A461844A2F50052904206D302F0CAFA35
:101560000C2303604FF0FF3008BD0860184608BD2B
:101570004C18FF1FFEE730B503460020B3FBF2F422
:1015800002FB1433092B94BF30333733DBB20B54D7
:1015900023460CB10130F1E70A1823465470C41AEF
:1015A000A34206DACC5C1578CD5402F80149013328
:1015B000F5E7084630BDFFFF044B054900221A60DD
:1015C0000A60044A106010221A60704714D0034069
:1015D00004D0034000D0034072B60B4B0B4A0C49B9
:1015E0001B681268096862B6490102D5322B88BFB0
:1015F0000132C3F5EA337820BF33B3FBF0F34FF485
:101600007A7000FB0230704718E000E0FC24FF1FF6
:1016100004ED00E038B50446FFF7DEFF054624B9C7
:1016200038BD013C0AD005F57A75FFF7D5FF401BA0
:10163000B0F57A7FF5D201F005F9F6E738BDFFFF86
:101640002B4B4FF0006270B51A604FF080521A6059
:101650004FF000521A604FF080421A604FF0004283
:101660001A60244B244A254D254C264E4EF6FF7118
:101670000020186059602823136093601361936100
:101680001362936213639363103202F501222B609D
:101690002360136093601361936113629362092264
:1016A000326006F58056043630607160B360336195
:1016B00046F8042C06F5FE2630607160B360336195
:1016C00046F8042C06F5805630600F4801602B6008
:1016D00023600E4B1A6001F0A1F91920FFF79AFF61
:1016E00000F088FE40F21310BDE87040FFF792BF93
:1016F00004E100E0048003400C8003400C900B40A8
:1017000014900B400080034008900B4000900B4069
:10171000431E032B14D872B60A4951F8230068B14E
:1017200070B4094C058834F81320466841F82360EA
:10173000521B24F8132062B670BC704762B6704723
:10174000002070475825FF1F3829FF1F0138032844
:101750000BD872B6074B53F8203043B100205B68BA
:101760000130002BFBD162B670470020704718464D
:10177000F9E700BFAC25FF1F30B472B62B4A1378CF
:101780001D0706D52A4B196A002936D0996A002907
:1017900041D053781C0706D5254B196C00293ED043
:1017A000996C002939D09378190705D5204B196E0B
:1017B000002936D0996E89B1D3781B0707D51C4B09
:1017C000D3F880207AB3D3F8882011213AB162B6D9
:1017D000184B00221A7030BC00F0B8BE0D21154C19
:1017E000154D227843F8315003EBC1030830013A1C
:1017F0005860227062B630BC704704220D4C0F4D09
:10180000217843F8325003EBC20308304A1E586077
:10181000227062B6EFE70521E1E70921DFE7082240
:10182000ECE70C22EAE71022E8E700BF14710000A1
:101830000000FF1FD525FF1FC800400088004000A2
:10184000431E032B1DD81B4A400140F0100030B44A
:10185000104472B6184CE25C032A1BD8DFE802F091
:101860000212151703220D88E25410F0080F14BF5E
:10187000C823882343EA054308310360416062B608
:1018800030BC704708300222EDE70522EBE7083054
:101890000422E8E7094A52F8230038B1084A52F80E
:1018A0002300416042F8231062B6E9E742F82310B2
:1018B000034AF7E70000FF1FE425FF1FAC25FF1FC9
:1018C000BC25FF1F2DE9F04FB54CB64E87B046E062
:1018D000B54F4FEA930B07EBCB08013DD8F8041046
:1018E00003F00803EDB2A1F1080003F0FF02002BA2
:1018F00040F0108157F83B301B0C1FFA83FE21F893
:1019000008EC002B00F0FD80A84B21F8062C41F8D4
:10191000042C53F82520002A00F0DF82DFF8CCA247
:101920005AF825305860DFF8C8924AF8250039F88F
:1019300015309E4429F815E000F0EAFD002800F07B
:10194000C5829B499B4B18F0080F00F1080018BF97
:101950000B46C8F8040047F83B300823237025786D
:10196000EDB2690719D5944B1B78A3B193490A7856
:1019700002F0FF0322B1013BDBB20B7003B900BEE2
:101980008F490A7802F0FF032AB1013BDBB20B70EA
:10199000002B00F071820423237005F0080303F08C
:1019A000FF02002B00F0DC803378DBB21D098FD101
:1019B0009B087D4D55F8332005EBC301C2F383022C
:1019C000013A49680C2A00F29880DFE802F08C8C1A
:1019D0009696969696964D96969607000868DFF826
:1019E000F4E14A68DFF80CB2764FCEF80420CEF866
:1019F000000082B240F281600021DFF8B49145F826
:101A000033904FF0010C8242CBF800102961A9619C
:101A100087F800C0DFF8909100F2F080B2F5D06F47
:101A200080F08F83B2F5817F00F0218300F2A882DD
:101A3000802A00F06283822A40F02083BEF80430BE
:101A400003F07F03042B00F219835F4A5F489B0079
:101A50001A440170417013789B0740F17A8480F832
:101A600000C04FF0020C4DE3DFF888B1DBF8003026
:101A700073B3DFF884A1534F554ABAF8001097F8B2
:101A800000E0107840298C4640F0020928BF4FF052
:101A9000400CBEF1000F8EF0010E87F800E0CCEB99
:101AA00001010CBF8827C82705EBC90E89B280F059
:101AB000010047EA0C47CEF80430AAF8001045F8B8
:101AC000397063441070002900F04581CBF8003074
:101AD000404B1A88B2F5A06F0FD13F4A9978117028
:101AE00000225A7009E03B4A108842F221029042DB
:101AF00000F036812E4A45F83320384A012313700E
:101B00002BE72B492B4B18F0080F18BF0B4647F853
:101B10003B3022E700F01AFD3148324A50F82510D8
:101B2000002900F013824B6812F805C040F82530F8
:101B300001F10803C8F80430BCF1030F05D8DFE851
:101B40000CF02C0229260223535518F0080F0A889E
:101B50000CBF8823C82343EA024347F83B30FCE626
:101B6000E80700F18C81290600F10082AA0706D55A
:101B70001D4A0B4913780220DBB213700870EB0684
:101B800002D5074B10221A7007B0BDE8F08F04236E
:101B90005355DAE705235355D7E703235355D4E7C5
:101BA00080200740902007400000FF1F5825FF1F9E
:101BB000C800400088004000E025FF1F6925FF1F86
:101BC000E825FF1F6825FF1FC0200740D825FF1FFD
:101BD000D425FF1FCC25FF1F9820074094200740E5
:101BE000AC25FF1FE425FF1F882007400425FF1FA9
:101BF0003829FF1F0025FF1F1425FF1F42F2210374
:101C00009A4200F0358100F2D980B2F5086F00F0F9
:101C1000B382B2F5106F40F03182B24AD9F8203069
:101C20009EF8021011701A0600F14383AB6AAE4AA7
:101C30001B0600F139832B6BAB4A180600F14E836B
:101C4000AB6BA94A190600F144832B6CA64A1B060C
:101C500000F13A83AB6CA44A180600F130832B6D77
:101C6000A14A190600F16483AB6D9F4A1B0600F17F
:101C70005A832B6E9C4A180600F15083AB6E9A4A29
:101C8000190600F146832B6F974A1B0600F13C832F
:101C9000AB6F954A180600F13283D5F88030924A2E
:101CA000190600F12683D5F888308F4A1B0600F10B
:101CB0001A83D5F890308C4A180600F14483D5F881
:101CC0009830894A190600F1388300230193874B25
:101CD0000293874B0393874B0593DFF860A2864BF3
:101CE000DFF85C920493029B186830B1D0F804804E
:101CF00000F02CFC40460028F8D1039B1868029B9A
:101D00001A4600231360019B1A4600234AF822302A
:101D100030B1D0F8048000F019FC40460028F8D11A
:101D2000039A049B114600220A60059A1B7811460B
:101D3000002241F8042B019A0591023B4FF000016B
:101D400029F81210032B00F23F81DFE813F08B011A
:101D500039018B013901BCF1400F18BF0023B5E6F2
:101D6000664A0F784878177050708F78C8789770E7
:101D7000D07010680F79177186284F798979917121
:101D8000577108BF5E4A5F4F04BF0F2111705E4A52
:101D900038781178002881F0010E41F0020182F8B4
:101DA00000E00CBF8822C82245F8312005EBC101B4
:101DB00080F00100002238704A609BE642F2212345
:101DC0009A4240F0E781DFF87C91504B504A9EF8F0
:101DD0000200D9F800E0C3F800E00191CDF808C096
:101DE00010700021029B03918A4689460846464AA4
:101DF00092F800E04EF0020C05EBCC08002BC8F87E
:101E000004000CBF8820C82040EA0A0A9DF804306C
:101E100045F83CA08EF001003B701070DFF8C8C0A0
:101E2000DFF8E080DFF8E0A0002940F02E81B9F172
:101E3000400F1DD140F0020005EBC005039B6B6015
:101E4000019DDFF8A4C0002D40F036810D0445F05F
:101E500088084CF830809DF808503D7082F800E00A
:101E60000B44402904D100212A4ACBF800301180CC
:101E7000294A0123137040E600F0C0FC8BE51A4BA1
:101E8000254821491A614FF0020E80F800E0234FE7
:101E90000A70234919609960224E234D234C9A61A0
:101EA0000D213970FF213170DFF89CE0297022701C
:101EB0001F4D204A8EF800109F27012406F8047C4D
:101EC0005D600470DA6007B0BDE8F08F1A4A47F829
:101ED0003B001378013313703FE543F82500DFF82A
:101EE0005CA020E5E025FF1F0000FF1F5825FF1F15
:101EF000AC25FF1FBC25FF1FE425FF1F4029FF1F46
:101F00006925FF1F6825FF1FD425FF1F4829FF1FD4
:101F1000F825FF1F1425FF1F94200740C02007400D
:101F20008800400088200740802007409820074014
:101F30001825FF1F6C25FF1FD525FF1F0425FF1F38
:101F40003829FF1FFC24FF1F8C200740535D032B03
:101F500000F2CC8001A151F823F000BF5B19000012
:101F60005B190000BB1F0000B51F0000BE49BF4B3E
:101F700080220D2008701A70AA077FF500AEF7E5E1
:101F800040F202339A4240F0FC80BEF8042002F096
:101F90007F02042A72D8BEF80230002B6ED1B249FB
:101FA000019392001144CDF808C00A7842F0020271
:101FB0000A7016E701235355CFE400235355CCE4B0
:101FC000049B4FF001021A70029A019B04320292A4
:101FD000039A04320392049A01330132042B0193D1
:101FE00004927FF480AEDFF8B492DFF8B4A299F8DF
:101FF00000309F4A00218AF8001013701B0700F17F
:102000000A8199F801309B4ADFF89882137018070B
:102010004FF000022A63AA6300F1E88099F80230C9
:10202000954ADFF88082137019074FF000022A6585
:10203000AA6500F10381914A99F8033013700022D8
:102040002A67AA671A07DFF85C9200F1B8803B782C
:102050000293002283F001030193C5F89020C5F894
:102060009820BEE6049B4FF000021A70ACE7BEF861
:10207000042002F07F02042A40F291807A4B0F2262
:102080001A707F4A0123137037E540297FF6D2AEDC
:1020900040F002000CEBC002039B5360019AC2B1F6
:1020A000784A9DF8085088F8005040398AF800E0D6
:1020B00040334CF83020D7E69DF808303B700D04D3
:1020C000039B82F800E045F0C8050B444CF8305003
:1020D000C7E69DF8083088F80030039B6A4A8AF802
:1020E00000E0403940334CF83020BDE618F0080FCE
:1020F0000CBF0223032353552FE464484FF0020C16
:1021000001704170BEF80610614580F06181604A3F
:1021100092F800E04EF0020C05EBCC034029894612
:1021200028BF4FF04009586000EB090303930023D8
:1021300001930123C9EB01014FEA094A0293C82028
:1021400062E6544B5868002898D0BEF80210BEF8DA
:1021500004C003E00C33586800288FD01A888A42E4
:10216000F8D15A886245F5D1090A03290CBF90F8C5
:1021700000C0B3F808C0C5E7474B44481B7803705C
:10218000C0E7B2F5A06F7FF479AF0023019301237C
:10219000029326E642F221339A42F6D06EE7BEF869
:1021A0000230002B7FF46AAF2F4901939200114453
:1021B000CDF808C00A7822F002020A7011E600F099
:1021C000A7F9002800F0D08008302F4BC9F8840010
:1021D000C9F8803000F09CF9002800F0BD8008307C
:1021E000284BC5F88C00C5F8883030E700F090F92E
:1021F000002800F0D6800830234BC8F84400C8F807
:10220000403000F085F9002800F0C48008301D4BF4
:10221000E864AB6402E700F07BF9002800F0B380CB
:102220000830194B68622B6200F072F9002800F048
:10223000A3800830134BE862AB62E2E600F068F975
:10224000002800F0BD8008300F4BC8F86400C8F8C3
:10225000603000F05DF9002800F0AB800830094BD9
:10226000E866AB66E7E600BFC02007408020074075
:10227000C4200740C8200740CC200740D02007409A
:1022800094200740C800400088004000D825FF1F68
:10229000D425FF1F18710000E025FF1F14710000F6
:1022A000D525FF1F0000FF1FD06A083800F04EF947
:1022B000C1E4D9F82400083800F048F9B6E4D06C3D
:1022C000083800F043F9CAE4506C083800F03EF9D1
:1022D000C0E4D06B083800F039F9B6E4506B083828
:1022E00000F034F9ACE4D2F88C00083800F02EF994
:1022F000DFE4D2F88400083800F028F9D3E4D06F86
:10230000083800F023F9C8E4506F083800F01EF9CF
:10231000BEE4D06E083800F019F9B4E4506E083805
:1023200000F014F9AAE4D06D083800F00FF9A0E429
:10233000506D083800F00AF996E4D2F89C0008388D
:1023400000F004F9C1E4D2F89400083800F0FEF877
:10235000B5E44FF0020CD5E69AF80030C5F88800D5
:1023600001338AF8003072E69AF80030C9F880002C
:1023700001338AF800302DE79AF80030A862013363
:102380008AF800303DE69AF80030286201338AF876
:10239000003049E79AF80030A86401338AF8003029
:1023A0003CE69AF80030C8F8400001338AF8003063
:1023B00027E79AF80030A86601338AF800303AE639
:1023C0009AF80030C8F8600001338AF8003040E71E
:1023D000BCF1400FE14628BF4FF0400900EB090374
:1023E0000393002301930123C9EB0C014FEA094A2F
:1023F0000293FCE42DE9F04100F060FE2F4C304BDD
:102400003048DFF8D880304F304D314EDFF8D0C043
:10241000DFF8D0E000221A605A609A60DA601A6130
:102420005A619A61DA611A625A629A62DA621A63CE
:102430005A639A63DA631A645A649A64DA641A65AE
:102440005A659A65DA651A665A669A66DA661A678E
:102450005A679A67DA67C3F880202168C3F8842036
:1024600041F480212160016841F040710160C3F3B3
:10247000072188F8001004F52834C3F307411B0E28
:102480003970CC342B7000F12040FF238CF80030E1
:10249000104D8EF8003000F6041033700E49012301
:1024A00008F8083C702622704FF40014102207F838
:1024B0002C3C2E7004600A70BDE8F081348004402A
:1024C0000000FF1F00D80040B0200740B4200740A4
:1024D0001020074035E400E0082107409C20074019
:1024E000802007408820074000F0A2B800F076B8AE
:1024F00000F04EB800F08EB800F052B900F02CB9E0
:102500000846114600F0ACB8084600F019B970470B
:1025100010B572B60B480268B2FA82F10B2902DDDF
:1025200062B6002010BD4FF00043CB4022EA030208
:10253000026062B6044C48234B43E0180022E2508C
:10254000426010BD6018FF1F9813FF1F0C4B4822FC
:10255000C31AB3FBF2F30B2B11D80A4A127822B13B
:10256000094A12780AB1FFF707B972B607494FF066
:10257000004222FA03F30A681A430A6062B67047FF
:102580009813FF1FD525FF1FE025FF1F6018FF1FB1
:1025900010B5104C23686BB1206843885A1C034463
:1025A0001C7A03889A4212D3FFF7D0FF094B00220E
:1025B0001A600DE0084B1B7813B94FF0FF3010BDC7
:1025C0000320FFF7A5F820600028E5D1F5E7428059
:1025D000204610BDF425FF1FE025FF1F10B50B4C52
:1025E000236813B122686AB902E0094B1B7813B95A
:1025F0004FF0FF3010BD0320FFF78AF8206000285D
:10260000F0D1F5E753881344187A10BDF425FF1F65
:10261000E025FF1F044B9888044B1A681AB11388F1
:1026200052889B1A184470473829FF1FF425FF1F52
:1026300010B5094B1B786BB1084C206818B1FFF737
:1026400085FF002323600320FFF762F810B1FFF736
:102650007DFFF8E710BD00BFE025FF1FF425FF1F39
:102660002DE9F84F314DDFF8D490012382460C4616
:102670002B700E464F46002E53D0D9F800303BBB8E
:10268000DFF8B0B04DF2E908294B1B7803F0FF01E9
:102690000BB9297015E00420FFF758F8072807D870
:1026A00001232B70FFF734FF386088B91F4B187077
:1026B000B8F1010802D09BF8003033B11D4B012264
:1026C0001A704FF0FF30BDE8F88F00F0BBF8DBE781
:1026D000184B0021197039684B88C3F14000B04293
:1026E00028BF304603EB000E0B44A1F802E0361A77
:1026F00007330AEB0008C24504D01AF8010B03F8AF
:10270000010FF8E74B883F2B06D940230B800420AC
:10271000FFF796F800233B60074B05221A70C2466C
:10272000A9E72E702046BDE8F88F00BFE925FF1FFE
:10273000E025FF1FF025FF1FE825FF1FEC25FF1FE9
:1027400007B502AB012103F8010D1846FFF788FF1A
:1027500003B05DF804FBFFFF38B50E4C0E4D0123AE
:1027600023702B687BB90D4B1B7813B900202070A8
:1027700038BD0420FEF7EAFF0728F7D8FFF7C8FEA8
:1027800028600028F2D02B68588800232370C0F1FD
:10279000400038BDE925FF1FEC25FF1FE025FF1F86
:1027A0002DE9F041114B1B78F3B1114F114B3C68EF
:1027B000114D01261E7098464CB1002663882E707C
:1027C000214623800420FFF73BF83E6009E0FFF735
:1027D0009FFE014620B104202C70FFF731F800E085
:1027E0002E70002388F80030BDE8F081E025FF1F3F
:1027F000EC25FF1FE925FF1FE825FF1F38B50E4B0D
:102800001B7803F0FF05ABB90C4C216831B14B8844
:102810000B800420FFF714F8256038BDFFF778FE21
:10282000014620B10420BDE83840FFF709B8044B49
:1028300001221A7038BD00BFE925FF1FEC25FF1FDC
:10284000E825FF1F38B5254C2378002B45D10123FF
:102850002370FFF7DFFE08B1FFF759FE00F03AF9E9
:1028600008B100F0D5F800F0C3F908B100F0D1F8D4
:1028700000F04CFA08B100F0CDF800F0BDFA08B154
:1028800000F0C9F800F02EFB08B100F0C5F800F028
:102890009FFB08B100F0C1F800232370EFF305831C
:1028A000DBB9EFF3108272B60D4D286810B10D4CF4
:1028B000217811B18AB962B638BD0123237043690A
:1028C0002B600BB1996101E007490B6002B962B658
:1028D0000025457783689847257038BDF925FF1F87
:1028E0000C26FF1F1026FF1F0826FF1FEFF3108086
:1028F00072B6B0FA80F04009704700B162B6704716
:10290000F8B50C4E0C4F0025FFF7F0FF3468024677
:102910006CB1636933600BB19D6100E03B601046B0
:10292000FFF7EBFF6577A36820469847ECE7FFF7D2
:10293000E4FFF8BDFC25FF1F0026FF1FFFF7E0BFE7
:1029400015490B6830B513B98360C36009E00468AA
:102950001A68944207D20025121B8360C560D860B4
:102960001A60086015E002681C689968121B026012
:1029700061B10C68A2420B46F5D28160C968C160A2
:10298000D860C168A21A88601A6002E08160C360E2
:1029900098600223037530BD0426FF1F70B5164DE5
:1029A0002C680026BCB1236813B1013B236012E000
:1029B000A26802B1D36020692A60036826751B688B
:1029C00022460021984763681BB123602046FFF729
:1029D000B7FF2C68E6E7FFF789FF084B00221C6869
:1029E0001A60FFF78AFF2CB1A5682046FFF7A8FF01
:1029F0002C46F8E770BD00BF0426FF1F1426FF1FFA
:102A0000024A136801331360FFF7C8BFFC24FF1F9D
:102A100070477047704770477047704710B5204B3C
:102A20002048214960221A70E1225A701F4B204A27
:102A30001C78204B082C01D1212402E00A2C03D160
:102A400039240460132005E00C2C0CBF35245D24D0
:102A500004601220086014601860174B17491B7837
:102A6000174A03B101230B601360164B164A1978FD
:102A7000164B012901D880210BE0042901D88421BB
:102A800007E0082901D8852103E0102994BF862199
:102A90008721116019600E4B01221A7010BD00BF12
:102AA0000040074008B003400CB003406418FF1F0B
:102AB00008B00B400CB00B401926FF1F20B003409C
:102AC00020B00B406518FF1F24B0034024B00B401A
:102AD0001826FF1F054B1878054B1A78C0B2D3B2E1
:102AE000984238BF4030C01A704700BFA226FF1F6F
:102AF0002126FF1FF0B534490B7913F0300F2FD08A
:102B000072B68B7D03F0FF0423B9CB7940234B745D
:102B100062B625E062B62D482D4A037812782D4F13
:102B2000DBB2D2B20546581C4028CE7928BF00201F
:102B30009042F6B21CBF3E540346601E10F0FF04E4
:102B4000F1D1D9B229702449096849B1934236BFFD
:102B5000C2F140029B1A9B18272BC4BF01230B70A4
:102B6000194AD178C9B20D061ED513791C061BD59A
:102B70001A4B1B481D7803781A4EEDB2DBB2AB42FC
:102B80000AD00133402B28BF00231479F45CE4B24F
:102B9000D471147D072CF2D9DBB203700A4B1A7979
:102BA000100644BF7C22DA7049060CD5064B1A7910
:102BB000520608D50C4A002111700C4A126802B165
:102BC00011703C22DA70F0BD00A00640A226FF1F63
:102BD0002126FF1F6226FF1F1C26FF1FA826FF1F9E
:102BE000A326FF1F2226FF1F2026FF1FA426FF1F4C
:102BF000054B1878054B1A78C0B2D3B2984238BF4B
:102C00004030C01A704700BF1A27FF1FB126FF1FB0
:102C1000F0B534490B7913F0300F2FD072B68B7D9D
:102C200003F0FF0423B9CB7940234B7462B625E04F
:102C300062B62D482D4A037812782D4FDBB2D2B2FE
:102C40000546581C4028CE7928BF00209042F6B295
:102C50001CBF3E540346601E10F0FF04F1D1D9B2F0
:102C600029702449096849B1934236BFC2F1400234
:102C70009B1A9B18272BC4BF01230B70194AD178CC
:102C8000C9B20D061ED513791C061BD51A4B1B485D
:102C90001D7803781A4EEDB2DBB2AB420AD0013395
:102CA000282B28BF00231479F45CE4B2D471147D7E
:102CB000072CF2D9DBB203700A4B1A79100644BF15
:102CC0007C22DA7049060CD5064B1A79520608D5D3
:102CD0000C4A002111700C4A126802B111703C229A
:102CE000DA70F0BD00B006401A27FF1FB126FF1FA3
:102CF000DA26FF1FAC26FF1F2027FF1F1B27FF1F01
:102D0000B226FF1FB026FF1F1C27FF1F054B187898
:102D1000054B1A78C0B2D3B2984238BF4030C01ABF
:102D2000704700BF9227FF1F2927FF1F10B5284BB0
:102D30001A79920620D52749DA790B78264801338B
:102D400000783F2BC8BF0023834218BF2348D2B26C
:102D50001EBFC254DAB20A70214A116861B1214A19
:102D60001278D2B2934236BFC2F140029B1A9B182E
:102D7000272BC4BF01230B701549CA78D2B21406A1
:102D800016D50B79180613D5174B164C18782378DF
:102D9000DBB2984202D16C23CB7009E00133282BBF
:102DA00028BF00231148C05CDBB2C0B2C8712370D9
:102DB00051060CD5064B1A79520608D50C4A00214B
:102DC00011700C4A126802B111702C22DA7010BD19
:102DD00000C006409227FF1F2927FF1F5227FF1F11
:102DE0002427FF1F9327FF1F9827FF1F2A27FF1F56
:102DF0002827FF1F9427FF1F054B1878054B1A78CB
:102E0000C0B2D3B2984238BF4030C01A704700BF3A
:102E10000A28FF1FA127FF1F10B5284B1A79920619
:102E200020D52749DA790B782648013300783F2BE3
:102E3000C8BF0023834218BF2348D2B21EBFC2546A
:102E4000DAB20A70214A116861B1214A1278D2B20D
:102E5000934236BFC2F140029B1A9B18272BC4BF76
:102E600001230B701549CA78D2B2140616D50B7916
:102E7000180613D5174B164C18782378DBB29842F6
:102E800002D16C23CB7009E00133282B28BF00232B
:102E90001148C05CDBB2C0B2C871237051060CD5BA
:102EA000064B1A79520608D50C4A002111700C4ABB
:102EB000126802B111702C22DA7010BD00D00640E9
:102EC0000A28FF1FA127FF1FCA27FF1F9C27FF1FDC
:102ED0000B28FF1F1028FF1FA227FF1FA027FF1F7F
:102EE0000C28FF1F054B1878054B1A78C0B2D3B2D7
:102EF000984238BF4030C01A704700BF8228FF1F79
:102F00001928FF1F10B5284B1A79920620D527499A
:102F1000DA790B782648013300783F2BC8BF0023AD
:102F2000834218BF2348D2B21EBFC254DAB20A701D
:102F3000214A116861B1214A1278D2B2934236BF58
:102F4000C2F140029B1A9B18272BC4BF01230B70B0
:102F50001549CA78D2B2140616D50B79180613D5BE
:102F6000174B164C18782378DBB2984202D16C23A9
:102F7000CB7009E00133282B28BF00231148C05C27
:102F8000DBB2C0B2C871237051060CD5064B1A795A
:102F9000520608D50C4A002111700C4A126802B181
:102FA00011702C22DA7010BD00A00E408228FF1F85
:102FB0001928FF1F4228FF1F1428FF1F8328FF1F07
:102FC0008828FF1F1A28FF1F1828FF1F8428FF1FAB
:102FD000054B1878054B1A78C0B2D3B2984238BF67
:102FE0004030C01A704700BFFA28FF1F9128FF1F0A
:102FF00010B5284B1A79920620D52749DA790B7833
:103000002648013300783F2BC8BF0023834218BFF6
:103010002348D2B21EBFC254DAB20A70214A1168E4
:1030200061B1214A1278D2B2934236BFC2F1400256
:103030009B1A9B18272BC4BF01230B701549CA7814
:10304000D2B2140616D50B79180613D5174B164CA9
:1030500018782378DBB2984202D16C23CB7009E058
:103060000133282B28BF00231148C05CDBB2C0B25B
:10307000C871237051060CD5064B1A79520608D533
:103080000C4A002111700C4A126802B111702C22F6
:10309000DA7010BD00B00E40FA28FF1F9128FF1F04
:1030A000BA28FF1F8C28FF1FFB28FF1F0029FF1FC6
:1030B0009228FF1F9028FF1FFC28FF1F1FB572B624
:1030C000134B144970221A70134A116080221A702F
:1030D0001A781206FCD5114B186862B6104B98424C
:1030E00098BF0A2301AC98BF58430A222146FEF735
:1030F00042FA0C4A0023E15C21B101330A2B22F889
:10310000021BF8D1084A01335B00137004B010BDF4
:103110000000024000000741040002400C00024091
:103120007F969800F018FF1FEE18FF1F0B46014610
:10313000184600F0D9BC00BF81F0004102E000BF9A
:1031400083F0004330B54FEA41044FEA430594EA67
:10315000050F08BF90EA020F1FBF54EA000C55EAA2
:10316000020C7FEA645C7FEA655C00F0E2804FEA73
:103170005454D4EB5555B8BF6D420CDD2C4480EA55
:10318000020281EA030382EA000083EA010180EA85
:10319000020281EA0303362D88BF30BD11F0004FD3
:1031A0004FEA01314FF4801C4CEA113102D0404209
:1031B00061EB410113F0004F4FEA03334CEA133344
:1031C00002D0524263EB430394EA050F00F0A7805C
:1031D000A4F10104D5F1200E0DDB02FA0EFC22FA57
:1031E00005F2801841F1000103FA0EF2801843FA4B
:1031F00005F359410EE0A5F120050EF1200E012A3C
:1032000003FA0EFC28BF4CF0020C43FA05F3C01879
:1032100051EBE37101F0004507D54FF0000EDCF1F2
:10322000000C7EEB00006EEB0101B1F5801F1BD39B
:10323000B1F5001F0CD349085FEA30004FEA3C0C9F
:1032400004F101044FEA445212F5800F80F09A8095
:10325000BCF1004F08BF5FEA500C50F1000041EB99
:10326000045141EA050130BD5FEA4C0C404141EB9D
:10327000010111F4801FA4F10104E9D191F0000FC4
:1032800004BF01460020B1FA81F308BF2033A3F147
:103290000B03B3F120020CDA0C3208DD02F1140C3E
:1032A000C2F10C0201FA0CF021FA02F10CE002F179
:1032B0001402D8BFC2F1200C01FA02F120FA0CFC72
:1032C000DCBF41EA0C019040E41AA2BF01EB0451BB
:1032D000294330BD6FEA04041F3C1CDA0C340EDCB9
:1032E00004F11404C4F1200220FA04F001FA02F3FC
:1032F00040EA030021FA04F345EA030130BDC4F1BA
:103300000C04C4F1200220FA02F001FA04F340EAAE
:103310000300294630BD21FA04F0294630BD94F05F
:10332000000F83F4801306BF81F480110134013D46
:103330004EE77FEA645C18BF7FEA655C29D094EAB7
:10334000050F08BF90EA020F05D054EA000C04BF35
:103350001946104630BD91EA030F1EBF0021002020
:1033600030BD5FEA545C05D14000494128BF41F0BF
:10337000004130BD14F580043CBF01F5801130BD23
:1033800001F0004545F0FE4141F470014FF00000AE
:1033900030BD7FEA645C1ABF194610467FEA655C5F
:1033A0001CBF0B46024650EA013406BF52EA033501
:1033B00091EA030F41F4002130BD00BF90F0000FEF
:1033C00004BF0021704730B54FF4806404F132042B
:1033D0004FF000054FF0000150E700BF90F0000FE4
:1033E00004BF0021704730B54FF4806404F132040B
:1033F00010F0004548BF40424FF000013EE700BFDB
:1034000042004FEAE2014FEA31014FEA02701FBF6A
:1034100012F07F4393F07F4F81F06051704792F03C
:10342000000F14BF93F07F4F704730B54FF46074B6
:1034300001F0004521F0004120E700BF50EA010201
:1034400008BF704730B54FF000050AE050EA0102AE
:1034500008BF704730B511F0004502D5404261EB1E
:1034600041014FF4806404F132045FEA915C3FF45F
:10347000DCAE4FF003025FEADC0C18BF03325FEAF8
:10348000DC0C18BF033202EBDC02C2F1200300FAAD
:1034900003FC20FA02F001FA03FE40EA0E0021FAD2
:1034A00002F11444C1E600BF70B54FF0FF0C4CF4BC
:1034B000E06C1CEA11541DBF1CEA135594EA0C0F72
:1034C00095EA0C0F00F0DEF82C4481EA030621EAAD
:1034D0004C5123EA4C5350EA013518BF52EA0335E8
:1034E00041F4801143F4801338D0A0FB02CE4FF09A
:1034F0000005E1FB02E506F00042E0FB03E54FF0CA
:103500000006E1FB03569CF0000F18BF4EF0010EC1
:10351000A4F1FF04B6F5007F64F5407404D25FEABD
:103520004E0E6D4146EB060642EAC62141EA555170
:103530004FEAC52040EA5E504FEACE2EB4F1FD0CB2
:1035400088BFBCF5E06F1ED8BEF1004F08BF5FEA30
:10355000500E50F1000041EB045170BD06F00046E2
:1035600046EA010140EA020081EA0301B4EB5C048F
:10357000C2BFD4EB0C0541EA045170BD41F4801187
:103580004FF0000E013C00F3AB8014F1360FDEBFAC
:10359000002001F0004170BDC4F10004203C35DA88
:1035A0000C341BDC04F11404C4F1200500FA05F30B
:1035B00020FA04F001FA05F240EA020001F00042AC
:1035C00021F0004110EBD37021FA04F642EB060122
:1035D0005EEA430E08BF20EAD37070BDC4F10C044C
:1035E000C4F1200500FA04F320FA05F001FA04F210
:1035F00040EA020001F0004110EBD37041F10001FC
:103600005EEA430E08BF20EAD37070BDC4F1200506
:1036100000FA05F24EEA020E20FA04F301FA05F26E
:1036200043EA020321FA04F001F0004121FA04F216
:1036300020EA020000EBD3705EEA430E08BF20EAE6
:10364000D37070BD94F0000F0FD101F00046400020
:1036500041EB010111F4801F08BF013CF7D041EAA2
:10366000060195F0000F18BF704703F000465200A6
:1036700043EB030313F4801F08BF013DF7D043EA77
:103680000603704794EA0C0F0CEA135518BF95EA2D
:103690000C0F0CD050EA410618BF52EA4306D1D1B4
:1036A00081EA030101F000414FF0000070BD50EAD3
:1036B000410606BF1046194652EA430619D094EA5D
:1036C0000C0F02D150EA013613D195EA0C0F05D147
:1036D00052EA03361CBF104619460AD181EA03019B
:1036E00001F0004141F0FE4141F470014FF0000053
:1036F00070BD41F0FE4141F4780170BD70B54FF0EE
:10370000FF0C4CF4E06C1CEA11541DBF1CEA13556D
:1037100094EA0C0F95EA0C0F00F0A7F8A4EB05044F
:1037200081EA030E52EA03354FEA013100F0888046
:103730004FEA03334FF0805545EA131343EA12630F
:103740004FEA022245EA111545EA10654FEA0026C4
:103750000EF000419D4208BF964244F1FD0404F57D
:10376000407402D25B084FEA3202B61A65EB0305D9
:103770005B084FEA32024FF480104FF4002CB6EB96
:10378000020E75EB030E22BFB61A754640EA0C0016
:103790005B084FEA3202B6EB020E75EB030E22BF56
:1037A000B61A754640EA5C005B084FEA3202B6EB97
:1037B000020E75EB030E22BFB61A754640EA9C0056
:1037C0005B084FEA3202B6EB020E75EB030E22BF26
:1037D000B61A754640EADC0055EA060E18D04FEAE4
:1037E000051545EA16754FEA06164FEAC30343EA84
:1037F00052734FEAC2025FEA1C1CC0D111F4801F51
:103800000BD141EA00014FF000004FF0004CB6E749
:1038100011F4801F04BF01430020B4F1FD0C88BFE8
:10382000BCF5E06F3FF6AFAEB5EB030C04BFB6EBF3
:10383000020C5FEA500C50F1000041EB045170BDE6
:103840000EF0004E4EEA113114EB5C04C2BFD4EB13
:103850000C0541EA045170BD41F480114FF0000E97
:10386000013C90E645EA060E8DE60CEA135594EA13
:103870000C0F08BF95EA0C0F3FF43BAF94EA0C0F16
:103880000AD150EA01347FF434AF95EA0C0F7FF48B
:1038900025AF104619462CE795EA0C0F06D152EADF
:1038A00003353FF4FDAE1046194622E750EA4106C3
:1038B00018BF52EA43067FF4C5AE50EA41047FF4D4
:1038C0000DAF52EA43057FF4EBAE12E74FF0FF3C39
:1038D00006E000BF4FF0010C02E000BF4FF0010C0A
:1038E0004DF804CD4FEA410C7FEA6C5C4FEA430C83
:1038F00018BF7FEA6C5C1BD001B050EA410C0CBFD2
:1039000052EA430C91EA030F02BF90EA020F002033
:10391000704710F1000F91EA030F58BF994208BF9A
:1039200090422CBFD8176FEAE37040F00100704757
:103930004FEA410C7FEA6C5C02D150EA013C07D1AE
:103940004FEA430C7FEA6C5CD6D152EA033CD3D0F9
:103950005DF8040B704700BF8446104662468C46F3
:103960001946634600E000BF01B5FFF7B7FF002826
:1039700048BF10F1000F01BD4DF808EDFFF7F4FF4F
:103980000CBF012000205DF808FB00BF4DF808EDDA
:10399000FFF7EAFF34BF012000205DF808FB00BFFD
:1039A0004DF808EDFFF7E0FF94BF012000205DF81F
:1039B00008FB00BF4DF808EDFFF7CEFF94BF0120D4
:1039C00000205DF808FB00BF4DF808EDFFF7C4FFCD
:1039D00034BF012000205DF808FB00BF4FEA410C16
:1039E0007FEA6C5C02D150EA013C0AD14FEA430CF9
:1039F0007FEA6C5C02D152EA033C02D14FF0000036
:103A000070474FF0010070474A0011D212F50012C2
:103A100011D20DD56FF47873B3EB62520ED44FEA26
:103A2000C12343F0004343EA505323FA02F07047A6
:103A30004FF00000704750EA013002D14FF0FF30E4
:103A400070474FF0000070474FEA4102B2F1E04387
:103A500024BFB3F5001CDCF1FE5C0DD901F0004C75
:103A60004FEAC0024CEA5070B2F1004F40EB8300C5
:103A700008BF20F00100704711F0804F21D113F1F1
:103A80003872BCBF01F00040704741F480114FEA2A
:103A90005252C2F11802C2F1200C10FA0CF320FAB3
:103AA00002F018BF40F001004FEAC1234FEAD323D0
:103AB00003FA0CFC40EA0C0023FA02F34FEA43033A
:103AC000CCE77FEA625307D150EA01331EBF4FF0C3
:103AD000FE4040F44000704701F0004040F0FE40DE
:103AE00040F40000704700BF13460A46014602201A
:103AF00001F064BE014B1868704700BF301DFF1F06
:103B000070B50F4E0F4D761BB61018BF002405D0B0
:103B1000013455F8043B9847A642F9D10A4E0B4DA3
:103B2000761B03F0E3FCB61018BF002406D0013466
:103B300055F8043B9847A642F9D170BD70BD00BF4F
:103B4000F8740000F874000008750000F8740000B4
:103B5000024B0146186800F00BB800BF301DFF1F74
:103B6000024B0146186801F0EDBE00BF301DFF1F7B
:103B70002DE9F04F01F10B05162D83B0064640F2FA
:103B80009F8035F0070500F1BF80A94200F2BC809C
:103B900000F020FBB5F5FC7FC0F09C826B0A00F0C2
:103BA000BA80042B00F28381A80900F1390E4FEA94
:103BB0004E033830C44F07EB8303A3F108015C6860
:103BC000A14207D1ACE0002A80F2AC80E468A142B7
:103BD00000F0A680636823F003035A1B0F2AF2DD6E
:103BE000B9493C6901F1080E744500F0B38163687E
:103BF00023F003035A1B0F2A00F39981002AC1F80E
:103C000014E0C1F810E080F29E80B3F5007F80F0F0
:103C10006781DB0803F1010C01229B1002FA03F318
:103C20004A6851F83C80C4F8088001EBCC091A437B
:103C3000A9F10803E3604A6041F83C40C8F80C4031
:103C4000831001249C40944200F28A80144206D1E1
:103C500020F003006400144200F10400FAD007EBE6
:103C6000C009CC468046DCF80C108C4507D173E1C6
:103C7000002A80F28181C9688C4500F06D814B6813
:103C800023F003035A1B0F2AF2DD0C46D1F80CC0B7
:103C900054F8088F4B1945F001054D6042F00101C1
:103CA000C8F80CC03046CCF808807B613B61C3F893
:103CB0000CE0C3F808E059609A5000F08DFA1FE05C
:103CC000102921D800F086FA1025062302207E4F05
:103CD00007EB8303A3F108025C68944200F045817E
:103CE0006368E168A56823F00303234430465A68FB
:103CF000E96042F001028D605A6000F06DFA08340C
:103D0000204603B0BDE8F08F00240C23204633602A
:103D100003B0BDE8F08F80234FF0400E3F2049E70D
:103D200070465DE72344E1685A68A56842F00102E5
:103D3000E96030468D605A6000F04EFA0834204643
:103D400003B0BDE8F08F234430465A6842F00102C8
:103D50005A6000F041FA0834204603B0BDE8F08F05
:103D6000BC68636823F00308A84504D3C5EB0803C7
:103D70000F2B00F38C80554BDFF860911A68D9F84F
:103D8000003001332A4404EB080A00F0608102F598
:103D900080520F3222F47F6222F00F021146304629
:103DA000019200F013FCB0F1FF3F8346019A00F04E
:103DB0005881824500F2FC80454B1968DA45114470
:103DC000196000F05381D9F80000DFF810E10130EC
:103DD0001BBFCAEB0B0A5144CEF800B019601BF0B0
:103DE000070100F01781C1F10800C1F5805183443B
:103DF00008315A44C2F30B02C2EB0109494630466E
:103E0000019300F0E3FB431C019B00F03F81CBEBEF
:103E100000024A4442F001021968C7F808B0494458
:103E2000BC42CBF804201960DFF8A49016D0B8F19A
:103E30000F0F40F2FD806268A8F10C0323F0070326
:103E4000E01802F001024FF0050E1A430F2B6260DA
:103E5000C0F804E0C0F808E000F21C811D4BBC680B
:103E60001A68914288BF19601B4B1A6891426268B8
:103E700088BF196022F003029542A2EB050301D826
:103E80000F2B04DC304600F0A7F9002438E7621954
:103E900043F0010345F0010565603046BA605360A8
:103EA00000F09AF90834204603B0BDE8F08F142BD7
:103EB00071D9542B00F2A480280B00F16F0E4FEA49
:103EC0004E036E3076E600BFA01EFF1F0C29FF1FB9
:103ED0001029FF1F0829FF1F0429FF1FAC22FF1F05
:103EE0005A0A042A5ED9142A00F2B38002F15C0156
:103EF00049005B3207EB810C57F82110DFF8DC81B9
:103F0000ACF1080C8C4500F088804A6822F003026E
:103F1000934202D289688C45F7D1D1F80CC07A68F7
:103F2000C4F80CC0A160CCF80840CC6088E66319E6
:103F300042F0010745F00105656030464B610B61B9
:103F4000C3F80CE0C3F808E05F609A50083400F052
:103F500043F9D5E64A6873E608F1010818F0030F43
:103F60000CF1080C7FF47FAE30E0DC68A34208BFA0
:103F700002303FF435AEB3E60B440C465A68C968CC
:103F800054F8085F42F001025A603046E9608D60E3
:103F900000F022F9B4E603F15C0E03F15B004FEA96
:103FA0004E0307E69A0902F1390149003832A1E7C8
:103FB000BC424A4B3FF400AF9C68626822F00302A7
:103FC0005AE759F80839994540F0828010F0030FFC
:103FD00000F1FF30F5D17B6823EA04037B606400C5
:103FE0009C423FF6BDAE002C3FF4BAAE1C424046A8
:103FF0007FF435AE64001C4200F10400FAD02EE6D6
:10400000B3F5AA7F18D8E80B00F1780E4FEA4E03FB
:104010007730CFE54FF48051EBE60121D8F804303A
:10402000921001FA02F21A43C8F80420614677E7B9
:104030000123CBF8043025E740F25452934220D8B4
:10404000A80C00F17D0E4FEA4E037C30B2E5103231
:10405000A4E6542A26D81A0B02F16F0149006E32E9
:1040600048E7BC68626822F0030205E7CAF30B0068
:1040700000287FF4A8AE4244BB6842F001025A60B7
:10408000ECE6FE234FF07F0E7E2093E501224FF0F9
:104090000009C1E604F10801304601F053FCD9F8EB
:1040A0000010DBE6B2F5AA7F05D8DA0B02F1780141
:1040B000490077321EE740F254518A4205D89A0CE3
:1040C00002F17D0149007C3214E7FE217E2211E7D6
:1040D0007B6884E7E808431C5B00F8E5A01EFF1F2F
:1040E00082B049B15AB16BB113780B601278101CD1
:1040F00018BF012002B0704701A9002AF3D1104671
:1041000002B070476FF00100F4E700BF8842F0B5DD
:104110000DD98B1898420AD28118002A51D09A1AC8
:1041200013F8014D01F8014D9342F9D1F0BD0F2A6A
:1041300048D941EA00039B0746D100F1100401F180
:104140001003154653F8106C44F8106C53F80C6CBF
:1041500044F80C6C53F8086C44F8086C103D53F8A4
:10416000046C44F8046C0F2D03F1100304F11004E7
:10417000E8D8A2F1100323F00F0302F00F0E103362
:10418000BEF1030F1944034421D91E1F0D46744686
:10419000043C55F8047B46F8047F032CF8D8AEF1B4
:1041A000040424F0030404342344214402F00302F1
:1041B00062B1013B0A4411F8014B03F8014F8A42F6
:1041C000F9D1F0BD0346F3E70346F2E7F0BD7246CE
:1041D000EEE700BF704700BF704700BF024B0A46C2
:1041E0000146186800F002B8301DFF1F2DE9F04F9E
:1041F000174683B0002900F0C1800E46814607F1C2
:104200000B05FFF7E7FF56F804EC162D2EF003041C
:10421000A6F1080840D810221546AF4241D8944272
:1042200075DAC94B996808EB04008842416800F0D0
:10423000D98021F0010303445B68DB077DD51EF0C4
:10424000010F35D039464846FFF792FC0746E0B1EA
:1042500056F8043C23F001034344A0F108029A42BB
:1042600000F04481221F242A00F23181132A00F237
:10427000048103463246116819605168596092689A
:104280009A603146484601F05DFB4846FFF7A4FFBF
:10429000384603B0BDE8F08F25F00705002D2A460B
:1042A000BBDA0C230020C9F8003003B0BDE8F08F62
:1042B00056F8083CC3EB080ADAF8043023F0030C84
:1042C00004EB0C039342BDDB5746DAF80C1057F8A9
:1042D000080F221F242AC160886000F21781132A68
:1042E00040F212813168CAF808107168CAF80C10DF
:1042F0001B2A00F22B8108360AF110023168116086
:1043000071685160B16891603E461C46D046631B9F
:104310000F2B1DD8D8F8043003F001032343444485
:10432000C8F80430636843F0010363604846FFF750
:1043300053FF304603B0BDE8F08F21F00301214464
:10434000914221DBC36882680C46D3609A60DEE745
:10435000D8F8042008EB050102F00102154343F0F0
:1043600001020B44C8F804504A605A6842F0010246
:1043700008315A60484601F0E5FAD7E7114603B024
:10438000BDE8F04FFFF7F4BB1EF0010F7FF45AAF0A
:1043900056F8083CC3EB080ADAF8043023F0030CA3
:1043A00001EB0C0E96458BDBC36882685746D360E1
:1043B0009A6057F8081FDAF80C30CB60221F242AC5
:1043C000996000F29980132A62D93368CAF80830DC
:1043D0007368CAF80C301B2A00F2A08008360AF174
:1043E000100356E021F0030BA34405F110008345B0
:1043F00059DA1EF0010F7FF425AF56F8081CC1EB07
:10440000080ADAF8041021F0030CE34458453FF79A
:1044100057AF5746DAF80C1057F8080F221F242A16
:10442000C160886000F2B480132A40F2A580316830
:10443000CAF808107168CAF80C101B2A00F2AF8085
:1044400008360AF110023168116071685160B16874
:1044500091600AEB0501C5EB0B0242F00102996085
:104460004A60DAF8043003F001031D434846CAF8F5
:104470000450FFF7B1FE38465CE7336803607368A9
:1044800043601B2A27D800F1080306F10802F2E670
:104490003B4632681A6072685A60B2689A603E465B
:1044A0007446D04633E708EB0501C5EB0B0B4BF028
:1044B000010299604A6056F8043C03F001031D4371
:1044C000484646F8045CFFF787FE304632E731463F
:1044D000FFF71CFED5E6B3688360F368C360242A47
:1044E00028D000F1100306F11002C4E650F8043C95
:1044F00023F003031C440AE7314638467446D0468D
:10450000FFF704FE3E4602E73A46F7E631463846F4
:104510001C46D046FFF7FAFD3E46F8E6B368CAF8F7
:104520001030F368CAF81430242A1BD010360AF170
:104530001803AEE7336903617369436106F118023A
:1045400000F1180397E600BFA01EFF1FB168CAF86C
:104550001010F168CAF81410242A0FD010360AF18E
:104560001802CBE63369CAF818307369CAF81C30F0
:1045700018360AF120038CE73A4664E73269CAF834
:1045800018207269CAF81C2018360AF12002B5E614
:10459000314638460193FFF7B9FD019B59E7B168F1
:1045A000CAF81010F168CAF81410242A03D0103683
:1045B0000AF1180247E73269CAF818207269CAF886
:1045C0001C2018360AF120023DE700BF38B5074C21
:1045D0000023054608462360FCF7B6FF431C00D0C5
:1045E00038BD2368002BFBD02B6038BD4C29FF1F42
:1045F00080EA0102844612F0030F4FD111F0030F3D
:1046000032D14DF8044D11F0040F51F8043B0BD09A
:10461000A3F101329A4312F0803F04BF4CF8043BEF
:1046200051F8043B16D100BF51F8044BA3F10132FD
:104630009A4312F0803FA4F101320BD14CF8043BB5
:10464000A24312F0803F04BF51F8043B4CF8044BE6
:10465000EAD023460CF8013B13F0FF0F4FEA332357
:10466000F8D15DF8044B704711F0010F06D011F836
:10467000012B0CF8012B002A08BF704711F0020F24
:10468000BFD031F8022B12F0FF0F16BF2CF8022B0F
:104690008CF8002012F47F4FB3D1704711F8012B32
:1046A0000CF8012B002AF9D1704700BFFFFFFFFF74
:1046B000FFFFFFFFFFFFFFFFFFFFFFFFFFFFFFFF0A
:1046C00090F800F06DE9024520F007016FF0000C52
:1046D00010F0070491F820F040F049804FF00004FA
:1046E0006FF00700D1E9002391F840F000F10800D5
:1046F00082FA4CF2A4FA8CF283FA4CF3A2FA8CF30D
:104700004BBBD1E9022382FA4CF200F10800A4FA73
:104710008CF283FA4CF3A2FA8CF3E3B9D1E90423C7
:1047200082FA4CF200F10800A4FA8CF283FA4CF3FE
:10473000A2FA8CF37BB9D1E9062301F1200182FAB8
:104740004CF200F10800A4FA8CF283FA4CF3A2FABE
:104750008CF3002BC6D0002A04BF04301A4612BACC
:10476000B2FA82F2FDE8024500EBD2007047D1E9CF
:10477000002304F00305C4F100004FEAC50514F05E
:10478000040F91F840F00CFA05F562EA05021CBF2F
:1047900063EA050362464FF00004A9E7002A41D00E
:1047A00040EA010313F00303F0B425D1032A23D90F
:1047B00004680D68AC421FD1043A35D0A4F101352C
:1047C00025EA040414F0803F31D1071D0D1D0DE0D2
:1047D00057F8043B0E68A3F10134B34224EA030402
:1047E0000AD1043A20D014F0803F23D1032A29466D
:1047F000384605F10405EBD803780C789C4202F1A9
:10480000FF320CD182B114B916E06AB17BB110F855
:10481000013F11F8014FA34202F1FF32F5D0181BFE
:10482000F0BC7047104670471046F0BC7047184601
:10483000F0BC70470020F3E72046F1E770B504466E
:104840000D4645EC104B164602F01AF851EC100BD1
:104850007EB1C5F30A53C3F16B03002B09DD1B05C1
:1048600003F17F55002405F5401522462B46FEF73F
:104870001BFE70BDFFFFFFFF2DE9F04F1D46A1B0ED
:104880000023834628460E4606921C9301F0F6FC50
:104890000024002382460068CDE90434FFF710FFAE
:1048A0001B9681463246144612F8017B2D2F00F2EA
:1048B000AF80DFE807F017ADADADADADADADAD810B
:1048C00081818181ADADADADADADADADADADADADC8
:1048D000ADADADADADAD81ADADADADADADADADAD34
:1048E000AD2BAD7E069B4FF000084FF0000943B1A1
:1048F00000230793069B1E60079B13B109F1004339
:10490000994649EC108B21B0BDE8F08F0023079346
:10491000621C1B926778002FE4D0302F14467BD0A6
:10492000002308940A93A7F13003092B00F20784AF
:104930004FF00008204645464446082CC8BF08EB07
:10494000880805EB850300F1010007EB43031B908A
:10495000C4BF07EB4807A7F130080778D8BFA3F119
:104960003005A7F13003092B04F10104E5D9DAF889
:1049700000104A46FFF712FF00B300203B46814675
:104980000746A246652B00F0B280452B00F0AF80B1
:104990000022002C52D118B90A9A002A00F0D182C4
:1049A0004FF000084FF00009069B002BA4D01B9E7F
:1049B000A0E701230793ABE71B9274E71B9B03EB74
:1049C00009021B9213F809300746A246A3F13002F0
:1049D000092A00F27982411C1346002A00F09F86C2
:1049E00001290F4418BF001905D100F094BE4D00F5
:1049F000844200F0BB840134611E082905EB850167
:104A0000F5DD102CDCBF08EB88084FEA4808EFE71B
:104A10000023302F079383D16378582B00F07383E2
:104A2000782B00F0708301341B942778302FFAD054
:104A3000002FB5D0012308940A9374E7102CA2EB41
:104A400007032846A1460B93A8BF4FF01009FEF7B5
:104A5000B5FCBAF1000F08BFA246B9F1090FCDE9C4
:104A6000040113DD494B03EBC90353E91223FEF79D
:104A70001BFD064640460F46FEF7A0FC02460B46CD
:104A800030463946FEF75EFBCDE904010F2C00F3FA
:104A900085800B9B002B27D040F31C850B9B162B8E
:104AA00000F37E84394F07EBC307D7E90001DDE946
:104AB0000423FEF7F9FC8046894675E71BA83449B4
:104AC00001F004FB00283FF40DAF1B9B3149013B73
:104AD0001BA81B9301F0FAFA10B91B9B01331B931F
:104AE0002D4B059300230493DDE904895CE7002C3A
:104AF00000F0CA811B9E731C1B9373782B2B00F054
:104B0000DD822D2B00F015824FF0000CA3F1300256
:104B1000092A00F2D082302B05D11B9A01321B9258
:104B20001378302BFAD0A3F13102082A3FF630AFC8
:104B30001B9A0C92511C303B1B910B935378A3F1A1
:104B4000300EBEF1090F0FD80B9A01311B9102EB09
:104B5000820203EB42020B78A3F1300EBEF1090F83
:104B6000A2F13002F1D90B920C9A891A082900F3AC
:104B70000E840B9A44F61F618A42A8BF0A46BCF114
:104B8000000F3FF406AF524203E700BFF07300008E
:104B9000987100009C7100000000F07F0B9BC9EB36
:104BA00004099944B9F1000F40F3878319F00F010C
:104BB0000AD0BD4B03EBC101D1E90001DDE90423BB
:104BC000FEF772FCCDE9040139F00F0640F01082C7
:104BD00000230A930095234652460899584601F04F
:104BE000BFFB1290002800F026830B9A0027002AB2
:104BF000C2F10003A8BF3B460C9322EAE2730B9379
:104C0000BA46129C5846616801F03AFB06460028F5
:104C100000F05A8222699DED047B0232920004F179
:104C20000C010C308DED087BFCF7ACFB9DED080B07
:104C30001EAA1DA9584601F0B5FE1C90002800F0E0
:104C400044820121584601F025FC8246002800F0EC
:104C50003B821D9A002AC0F233810C9B0B9C9D184D
:104C60000A981E9B9149121A1A44013A8A42C3F1CA
:104C7000360380F2EE80891A1F29A3EB010300F3AB
:104C8000268101228A400E920022139205EB03092D
:104C90001C440A9B4D452A461C44A8BF4A46A242D2
:104CA000A8BF2246002A03DDC2EB0909A41AAD1AE7
:104CB0000C9BBBB151461A46584601F08DFC82460A
:104CC000002800F0018201461C9A584601F0ECFBD6
:104CD000002800F0F9810D901C99584601F0F6FA71
:104CE0000D9A1C92B9F1000F08DD4A461C995846EE
:104CF00001F0C2FC1C90002800F0E7810B9B43B13F
:104D000031460B9A584601F067FC0646002800F031
:104D1000DB81002C08DD31462246584601F0ACFC10
:104D20000646002800F0D081002D08DD51462A46B5
:104D3000584601F0A1FC8246002800F0C5813246A9
:104D40001C99584601F012FD0746002800F0BC816E
:104D50000023C268C36051460D9201F0E5FC0028B3
:104D6000C0F20D8400F0C8835146384601F078FE49
:104D700055EC104B00224FF0804310EE100A2946EC
:104D8000FEF70EFE002869D00D9B002B00F0A780D7
:104D90009FED417B059B464D8DED0E7B0024984693
:104DA000DFF81491434B08EA0909994500F016828F
:104DB0000A9B2BB3B9F1D46F22D839A3D3E90023CE
:104DC000DDE90E01FEF7ECFDB0B1DDE90E01FEF705
:104DD0001BFE002800F04083FEF7F0FACDE90E013B
:104DE0000D9B002B40F03383DDE90E1202F10043EE
:104DF00014911593DDE9144505F1D663C9EB03055C
:104E00009DED080B01F03CFD204653EC102B29468C
:104E1000FEF74AFBDDE90823FEF794F9CDE904012A
:104E20000C460A9B23B9244B2340994500F00E827F
:104E30001C99584601F04AFA3146584601F046FAA4
:104E40005146584601F042FA3946584601F03EFABA
:104E5000D7E60022139201220E9217E7174B204645
:104E600029460022FEF720FB0D9BCDE90E01002B09
:104E70005AD101F1004310901193059BDDE91045D3
:104E800098468DE74FF00109002858D10A9B002B66
:104E90003FF428AD04462DE6000000000000F03F7E
:104EA0000000C0FFFFFFDF41F073000002FCFFFFC6
:104EB0000000F03F0000E07F0000F07F0000E03FD6
:104EC0000B9B0C9D9C1ACBE64FF001095AE5B849A3
:104ED000891A012202FA01F113910E92D6E6DDE958
:104EE0000412002940F0C980C2F313039046002B3E
:104EF00040F0C9800022AF4B20462946FEF746FD10
:104F0000002840F07E830022AB4B20462946FEF766
:104F1000CBFA0A460146CDE90E1202F10043189081
:104F20001993DDE918453BE79DED0E7B8DED107B78
:104F3000A3E74FF0010CB31C1B93B378E6E5002404
:104F4000D8E5B9F1000F7FF4CDAC493B252B3FF6F6
:104F5000C9AC01A252F823F0BD4A0000E5480000A8
:104F6000E5480000E5480000E548000095500000D5
:104F7000E5480000E5480000E5480000E54800007D
:104F8000E5480000E5480000E5480000E54800006D
:104F9000E5480000E5480000E5480000E54800005D
:104FA000E5480000E5480000E5480000E54800004D
:104FB000E5480000E5480000E5480000E54800003D
:104FC000E5480000E5480000E5480000E54800002D
:104FD000E5480000E5480000BD4A0000E548000043
:104FE000E5480000E5480000E54800009550000055
:104FF000B6F59A7F00F31F813611012EDFF8D891A4
:1050000040F31983DDE9040100234F46984616F06A
:10501000010F08F101084FEA660604D0D7E9002322
:10502000FEF742FA0123012E07F10807EFD1002B0A
:1050300040F06383059BA3F15473059309EBC80803
:10504000DDE90423D8E90001FEF72EFA21F0004340
:105050001B0D5A4A1B059342CDE9040100F2EB8077
:10506000A2F58012934240F2C782554B059300236C
:105070000A934FF0FF330493ACE5DDE904120129F4
:1050800000F0EF8190469FED487B00244D4D8DED63
:105090000E7B85E61BA84C4901F018F800283FF468
:1050A00021AC1B9B1B78282B00F00283474B0593F8
:1050B0000023049318E51B9600226AE44FF0000CCD
:1050C00039E7013340F0E7821C98414B05930022F9
:1050D0000492DDE904892223CBF8003001465846CA
:1050E00001F0F4F83146584601F0F0F851465846C0
:1050F00001F0ECF81299584601F0E8F839465846A4
:1051000001F0E4F850E4079A02951CAB0192009379
:10511000304A1DAB1BA9584600F050FD10F00706A1
:1051200005463FF43DAC062E40F056810134002385
:105130001B944FF000084FF00009079334E4DAF8AD
:10514000001020464A46FFF729FB48B14FF0000AFD
:105150003B46D0465546504657465446D14611E444
:105160001B9B03EB09021B9213F80930302B06D16D
:1051700001321B921378302B00F10100F8D0A3F11B
:105180003102082A40F27C814FF0000A652BD0469C
:10519000554657463FF476AE54464FF00109FFF7A7
:1051A000F4BB00BFAFF30080000000000000F03F40
:1051B000E2FBFFFF0000F03F0000E03F0000A07CAA
:1051C000FFFFEF7F0000F0BFA47100000000F8FFB8
:1051D0000000F07F84710000B8740000A8F15473DF
:1051E00005939DED047BB0EE470AF0EE670A01F0EF
:1051F00047FB204653EC102B2946FEF755F9DDE915
:105200000423FDF79FFF21F00043CDE904011B0DAE
:10521000AB4ADDE908011B059342CDE9160140F2D6
:10522000BA80A84B994200F0E281A64B05934FF05B
:10523000FF330493FCE5A44B059300222223049240
:10524000DDE90489CBF80030FFF7AEBBDDE90E895C
:105250004946404601F0BEFCFEF7C0F80B46024648
:1052600049464046FDF76CFF0D9B8046894683B951
:10527000049B73B9C4F313045CB989A3D3E9002375
:10528000FEF784FB00283FF4D3ADDDE904891C98C8
:1052900024E785A3D3E9002340464946FEF776FB81
:1052A0000028F2D14046494681A3D3E90023FEF706
:1052B0008BFB00283FF4BCADE7E73FF489ACC9F1B4
:1052C000000616F00F020AD0804B03EBC203DDE9A3
:1052D0000401D3E90023FEF711FACDE904013611E8
:1052E0003FF476AC1F2E38DC16F0100300F0B881C6
:1052F0006A23002E0A9313DDDDE90401744F0023B5
:10530000F20704D5D7E90023FEF7CEF80123761083
:1053100007F10807F4D1002B40F0F2810A9B9BB102
:10532000DDE90412C2F30A53C3F16B03002B1146EB
:105330000ADD1F2B40F3D9810022342B049240F365
:10534000E2814FF05C73059300220023DDE9040144
:10535000FEF712FB00283FF43DAC2223CBF80030CF
:105360004FF000084FF00009FFF71EBB1B990134F6
:10537000082840F38E80102CDCBF08EB880802EB75
:10538000480800204B1C1B934B78FFF71FBB44F6CB
:105390001F62FFF7F4BB059B03F15474059440E5CD
:1053A0000B9EC4F125039E423FF7F8AB474DC4F175
:1053B0000F0405EBC401341BDDE90423D1E900012E
:1053C00005EBC405FEF770F8D5E90023FEF76CF88D
:1053D00080468946FFF7E8BA1C9A3AB135211EA8E3
:1053E00001F06EFB58461C9900F070FF062E0BD89A
:1053F000DFE806F01D21181304211D006FF00043A3
:1054000005934FF0FF33049329077FF56DAB059BA0
:1054100043F000430593FFF767BB2B4B0593002335
:105420000493F1E71E9B04931F9B0593ECE7002375
:1054300005930493E8E71D9A1F9B1E99049102F2BD
:10544000334223F4801343EA02530593DCE79DEDD6
:105450000E7B8DED147BCDE49FED177B8DED0E7BE8
:10546000BEE4DDE904129046002A7FF40CAE22234C
:10547000CBF800301C984FF000084FF000092DE6E3
:105480001B9A08920025303B471C1146AA46A846A5
:10549000012405EB850503EB4505002072E700BFFD
:1054A0009535A094FFFFCF3F9535A094FFFFDF3FD8
:1054B00035E5AF350000E03F000000000000F03FA0
:1054C000FFFF9F7CFFFFEF7F0000F07FF073000085
:1054D000C07100000B9911F1160FFFF65FAB964AF1
:1054E000A2EBC102D2E90023DDE90401FEF706F9CF
:1054F00080468946FFF758BA0D9BDDE90889002BE5
:1055000000F08880DDE904458C4BC5F31301994216
:105510002A4600F0AA80139B002B00F08780059A92
:10552000134210D00D9B0A9ADDE90401002B00F014
:105530008580FFF783F902460B4640464946FDF752
:1055400001FE804689460A9BBBB17D4B1793002321
:105550001693DDE9162340464946FDF7A5FF0346AD
:105560000C4680468946CDE9043431B9049B23B901
:1055700022231C98CBF80030B0E51C98AEE50D9BBB
:10558000DDE90889002BDED1DDE904120029DAD13A
:10559000C2F313031446002BD5D122F000431B0D98
:1055A0001B05B3F1D66FCED97B6913B93B69012BCB
:1055B000C9DD39460122584601F05EF851460746DA
:1055C00001F0B2F80028BEDD0A9B002B40F082807B
:1055D0005C4B2340A3F580136FEA13536FEA035328
:1055E00005934FF0FF330493DDE90489ABE7169B85
:1055F00001337FF41AAE67E501F154730593FFF7A9
:10560000E7BA9FED497B8DED187B9FED497B8DEDD2
:105610000E7B86E4DDE90412C2F313031446002B6B
:105620007FF479AF00297FF476AFCDE70E9B049A23
:10563000134288D076E74FF00008FBE4FFF7FEF84E
:1056400002460B4640464946FDF77AFD00220023FC
:1056500080468946FEF790F900287FF408AF72E78C
:10566000002E0A933FF748AE6EE60A9B0499E3B119
:10567000344B2B40B3F1D46F17D81B0DC3F16B0320
:105680004FF0FF3000FA03F38B427FF444AF2E4912
:105690008A423FF416AD2B4B134003F5801305935C
:1056A00000230493DDE904894DE74FF0FF33EBE776
:1056B0001BA81EAA254900F021FD05287FF4F6ACA1
:1056C0001F9B43F0FF4343F4E00305931E9B0493A9
:1056D000FFF70ABA1B4B2340B3F1D66F3FF77AAFFF
:1056E000B3F15C7F3FF731AFC1E64FF0FF3202FA12
:1056F00003F3049A1A40049226E6CDE9040199E4E2
:10570000CDE904010AE6203B4FF0FF3202FA03F331
:105710000B40059318E620461B99013428E60846FD
:105720001B992FE6AFF30080000000000000E0BFEF
:10573000000000000000E03FF0730000FFFF0F00DA
:10574000000050390000F07FFFFFEF7FA8710000DC
:1057500038B5114B114D1C68636B0A46002B08BF0E
:105760002B4601462046FFF787F855EC104B10EE0C
:10577000102A2B4610EE100A2946FEF72FF930B9F1
:1057800020462946FEF760F900EE100A38BD0020D9
:10579000BDE8384001F0E8B9301DFF1F341DFF1F80
:1057A00021B1FF2A04D80A700120704708467047CB
:1057B0008A2303604FF0FF30704700BF2DE9F047A8
:1057C000254C2568D5F848410646884692469946B4
:1057D000C4B360681F2817DC431C76B104EB800556
:1057E0000122C5F888A0D4F8881182401143022E06
:1057F000C4F88811C5F808911ED00230636044F8DF
:1058000020800020BDE8F087144B03B34FF4C8702C
:10581000FEF79EF90446D0B1D5F84831002780E85C
:105820008800C5F8484138460123C4F88871C4F897
:105830008C71002EE1D0D1E7D4F88C110A43C4F862
:105840008C21DAE705F5A674C5F84841C1E74FF0A9
:10585000FF30BDE8F08700BF6C710000513B0000D5
:10586000024B13B1024800F005B870470000000079
:1058700081580000002301461A461846FFF79EBFD4
:1058800038B5074D074C2C1BA41005D0013C55F82A
:10589000043D9847002CF9D1BDE8384001F034BEF2
:1058A0000000000000000000F8B5234F0C4606463B
:1058B000FEF790FCBB685D6825F00305291B01F627
:1058C000EF7121F47F6121F00F01A1F58054B4F54F
:1058D000805F07DB00213046FEF778FEBB682B4473
:1058E000984204D03046FEF777FC0020F8BD6142B4
:1058F0003046FEF76BFE01300DD0104BBA681968C8
:105900002D1B45F001053046091B55601960FEF757
:1059100063FC0120F8BD00213046FEF757FEBA684F
:10592000831A0F2BDEDD064C0449246843F0010383
:10593000001B53600860D5E7A01EFF1F1029FF1F42
:10594000AC22FF1F002945D02DE9F0410D468046CD
:10595000FEF740FC55F8047C6A4927F00103A5F1E5
:105960000804E2188E685068B24220F0030062D04A
:10597000FE0750600BD455F8087CE41B01F1080EBB
:10598000A56875453B446FD0E768EF60BD601518AA
:105990006D68ED0742D543F001026260E350B3F554
:1059A000007F18D2DB085A1C4D6851F83270A7608E
:1059B00001209B1000FA03F301EBC2001D430838DD
:1059C000E0604D6041F83240FC604046BDE8F04187
:1059D000FEF702BC70475A0A042A53D89A0902F10A
:1059E00039077F0002F1380501EB870051F82720C5
:1059F0004449083890424DD0516821F003018B4250
:105A000002D292689042F7D1D068E060A2608460D0
:105A1000D4604046BDE8F041FEF7DEBB95683A4FE2
:105A2000BD4203443FD0D068E86043F00102856086
:105A30006260E350B3E7FF07034407D455F8082C2E
:105A4000A41A1344A068E268C26090602F4A1268EA
:105A500043F00100934260608C60B6D32C4B40460B
:105A60001968FFF721FFB0E711184968C90744D446
:105A70009168D268CA60034443F00100916060609D
:105A8000E350A2E7142A17D802F15C077F0002F165
:105A90005B05A9E7AA104B68012505FA02F213433A
:105AA0004B600246B1E743F001024C610C61E560D6
:105AB000A5606260E35088E7542A06D81A0B02F109
:105AC0006F077F0002F16E058EE7B2F5AA7F06D858
:105AD000DA0B02F178077F0002F1770584E740F2E4
